:020000040800F2
:1000000000500020E5000008250100082501000837
:100010002501000825010008250100080000000056
:1000200000000000000000000000000025010008A2
:100030002501000800000000250100082501000836
:10004000F0B54FF022374FF0010C4FF0E02241F6AF
:100050003F7600250524214921488B6943F004039C
:100060008B610760C36823F0FF03C3604FF0070E86
:100070004FF4FA71C7680CFA0EF327F0FF07C76058
:10008000C7683B43C3605661956114611369DF0320
:10009000FCD50139FAD10EF1FF3EBEF1FF3F1161EF
:1000A000E6D101274FF4FA71D0F80CE00CFA07F30F
:1000B0002EF0FF0EC0F80CE0D0F80CE043EA0E037F
:1000C000C3605661956114611369DB03FCD5013986
:1000D000FAD10137072F1161E4D1C7E700100240C0
:1000E000000801400A480B490B4A002302E0D4589B
:1000F000C4500433C4188C42F9D3084A084C002376
:1001000001E013600432A242FBD3FFF799FFFEE740
:10011000000000200000002028010008000000204E
:0801200000000020FEE70000D2
:04000005080000E50A
:00000001FF
