:020000040800F2
:100000000050002099000008D9000008D90000081D
:10001000D9000008D9000008D9000008000000003D
:10002000000000000000000000000000D9000008EF
:10003000D900000800000000D9000008D90000081D
:1000400080B44FF400574FF0E02241F63F76002590
:1000500005240F490F488B6943F010038B614368F7
:1000600023F470034360436843F400134360076163
:100070004FF47A71C36883F40053C360566195618D
:1000800014611369DB03FCD50139FAD11161EFE783
:1000900000100240001001400A480B490B4A00239F
:1000A00002E0D458C4500433C4188C42F9D3084A2F
:1000B000084C002301E013600432A242FBD3FFF797
:1000C000BFFFFEE70000002000000020DC00000869
:0C00D0000000002000000020FEE70000FF
:040000050800009956
:00000001FF
