:020000040800F2
:1000000000500020E1000008210100082101000843
:100010002101000821010008210100080000000062
:1000200000000000000000000000000021010008A6
:100030002101000800000000210100082101000842
:1000400080B44FF0E02241F63F7505240027214996
:1000500021488B69214E43F00C038B61436823F4E4
:1000600070234360436843F400234360C36843F450
:100070008053C360736823F470437360736843F400
:1000800000537360F36823F40063F360836813F430
:100090008053FBD114215561936114611369DB0313
:1000A000FCD50139FAD111618368DB04EED4836891
:1000B000D904FCD514215561976114611369DB03E0
:1000C000FCD50139FAD11161F36883F40063F36060
:1000D000DCE700BF0010024000080140000C0140B6
:1000E0000A480B490B4A002302E0D458C450043399
:1000F000C4188C42F9D3084A084C002301E013606D
:100100000432A242FBD3FFF79BFFFEE70000002072
:100110000000002024010008000000200000002052
:04012000FEE70000F6
:04000005080000E10E
:00000001FF
